{
  "contractName": "CrimeRecords",
  "abi": [
    {
      "inputs": [
        {
          "internalType": "uint256",
          "name": "",
          "type": "uint256"
        }
      ],
      "name": "crimes",
      "outputs": [
        {
          "internalType": "string",
          "name": "criminalName",
          "type": "string"
        },
        {
          "internalType": "string",
          "name": "location",
          "type": "string"
        },
        {
          "internalType": "string",
          "name": "crime",
          "type": "string"
        }
      ],
      "stateMutability": "view",
      "type": "function",
      "constant": true
    },
    {
      "inputs": [
        {
          "internalType": "string",
          "name": "_criminalName",
          "type": "string"
        },
        {
          "internalType": "string",
          "name": "_location",
          "type": "string"
        },
        {
          "internalType": "string",
          "name": "_crime",
          "type": "string"
        }
      ],
      "name": "addCrime",
      "outputs": [],
      "stateMutability": "nonpayable",
      "type": "function"
    },
    {
      "inputs": [
        {
          "internalType": "uint256",
          "name": "_index",
          "type": "uint256"
        }
      ],
      "name": "getCrime",
      "outputs": [
        {
          "internalType": "string",
          "name": "",
          "type": "string"
        },
        {
          "internalType": "string",
          "name": "",
          "type": "string"
        },
        {
          "internalType": "string",
          "name": "",
          "type": "string"
        }
      ],
      "stateMutability": "view",
      "type": "function",
      "constant": true
    },
    {
      "inputs": [],
      "name": "getCrimesCount",
      "outputs": [
        {
          "internalType": "uint256",
          "name": "",
          "type": "uint256"
        }
      ],
      "stateMutability": "view",
      "type": "function",
      "constant": true
    }
  ],
  "bytecode": "0x608060405234801561001057600080fd5b50610a8c806100206000396000f3fe608060405234801561001057600080fd5b506004361061004c5760003560e01c806309299855146100515780630cdefa301461006f57806343d72ae5146100a1578063b764e2fb146100bd575b600080fd5b6100596100ef565b60405161006691906108ba565b60405180910390f35b6100896004803603810190610084919061079d565b6100fb565b6040516100989392919061084e565b60405180910390f35b6100bb60048036038101906100b69190610706565b6102cd565b005b6100d760048036038101906100d2919061079d565b610371565b6040516100e69392919061084e565b60405180910390f35b60008080549050905090565b6000818154811061010b57600080fd5b906000526020600020906003020160009150905080600001805461012e9061099e565b80601f016020809104026020016040519081016040528092919081815260200182805461015a9061099e565b80156101a75780601f1061017c576101008083540402835291602001916101a7565b820191906000526020600020905b81548152906001019060200180831161018a57829003601f168201915b5050505050908060010180546101bc9061099e565b80601f01602080910402602001604051908101604052809291908181526020018280546101e89061099e565b80156102355780601f1061020a57610100808354040283529160200191610235565b820191906000526020600020905b81548152906001019060200180831161021857829003601f168201915b50505050509080600201805461024a9061099e565b80601f01602080910402602001604051908101604052809291908181526020018280546102769061099e565b80156102c35780601f10610298576101008083540402835291602001916102c3565b820191906000526020600020905b8154815290600101906020018083116102a657829003601f168201915b5050505050905083565b60006040518060600160405280858152602001848152602001838152509080600181540180825580915050600190039060005260206000209060030201600090919091909150600082015181600001908051906020019061032f9291906105e6565b50602082015181600101908051906020019061034c9291906105e6565b5060408201518160020190805190602001906103699291906105e6565b505050505050565b606080606060008054905084106103bd576040517f08c379a00000000000000000000000000000000000000000000000000000000081526004016103b49061089a565b60405180910390fd5b60008085815481106103f8577f4e487b7100000000000000000000000000000000000000000000000000000000600052603260045260246000fd5b90600052602060002090600302016040518060600160405290816000820180546104219061099e565b80601f016020809104026020016040519081016040528092919081815260200182805461044d9061099e565b801561049a5780601f1061046f5761010080835404028352916020019161049a565b820191906000526020600020905b81548152906001019060200180831161047d57829003601f168201915b505050505081526020016001820180546104b39061099e565b80601f01602080910402602001604051908101604052809291908181526020018280546104df9061099e565b801561052c5780601f106105015761010080835404028352916020019161052c565b820191906000526020600020905b81548152906001019060200180831161050f57829003601f168201915b505050505081526020016002820180546105459061099e565b80601f01602080910402602001604051908101604052809291908181526020018280546105719061099e565b80156105be5780601f10610593576101008083540402835291602001916105be565b820191906000526020600020905b8154815290600101906020018083116105a157829003601f168201915b5050505050815250509050806000015181602001518260400151935093509350509193909250565b8280546105f29061099e565b90600052602060002090601f016020900481019282610614576000855561065b565b82601f1061062d57805160ff191683800117855561065b565b8280016001018555821561065b579182015b8281111561065a57825182559160200191906001019061063f565b5b509050610668919061066c565b5090565b5b8082111561068557600081600090555060010161066d565b5090565b600061069c61069784610906565b6108d5565b9050828152602081018484840111156106b457600080fd5b6106bf84828561095c565b509392505050565b600082601f8301126106d857600080fd5b81356106e8848260208601610689565b91505092915050565b60008135905061070081610a3f565b92915050565b60008060006060848603121561071b57600080fd5b600084013567ffffffffffffffff81111561073557600080fd5b610741868287016106c7565b935050602084013567ffffffffffffffff81111561075e57600080fd5b61076a868287016106c7565b925050604084013567ffffffffffffffff81111561078757600080fd5b610793868287016106c7565b9150509250925092565b6000602082840312156107af57600080fd5b60006107bd848285016106f1565b91505092915050565b60006107d182610936565b6107db8185610941565b93506107eb81856020860161096b565b6107f481610a2e565b840191505092915050565b600061080c601383610941565b91507f496e646578206f7574206f6620626f756e6473000000000000000000000000006000830152602082019050919050565b61084881610952565b82525050565b6000606082019050818103600083015261086881866107c6565b9050818103602083015261087c81856107c6565b9050818103604083015261089081846107c6565b9050949350505050565b600060208201905081810360008301526108b3816107ff565b9050919050565b60006020820190506108cf600083018461083f565b92915050565b6000604051905081810181811067ffffffffffffffff821117156108fc576108fb6109ff565b5b8060405250919050565b600067ffffffffffffffff821115610921576109206109ff565b5b601f19601f8301169050602081019050919050565b600081519050919050565b600082825260208201905092915050565b6000819050919050565b82818337600083830152505050565b60005b8381101561098957808201518184015260208101905061096e565b83811115610998576000848401525b50505050565b600060028204905060018216806109b657607f821691505b602082108114156109ca576109c96109d0565b5b50919050565b7f4e487b7100000000000000000000000000000000000000000000000000000000600052602260045260246000fd5b7f4e487b7100000000000000000000000000000000000000000000000000000000600052604160045260246000fd5b6000601f19601f8301169050919050565b610a4881610952565b8114610a5357600080fd5b5056fea26469706673582212208c72d64510f11e76a8ec0b150e23010e34be1d54cc0144a1914387ddb45b7bc664736f6c63430008000033",
  "immutableReferences": {},
  "source": "// SPDX-License-Identifier: MIT\r\npragma solidity ^0.8.0;\r\n\r\ncontract CrimeRecords {\r\n    struct Crime {\r\n        string criminalName;\r\n        string location;\r\n        string crime;\r\n    }\r\n\r\n    Crime[] public crimes;\r\n\r\n    function addCrime(string memory _criminalName, string memory _location, string memory _crime) public {\r\n        crimes.push(Crime(_criminalName, _location, _crime));\r\n    }\r\n\r\n    function getCrime(uint _index) public view returns (string memory, string memory, string memory) {\r\n        require(_index < crimes.length, \"Index out of bounds\");\r\n        Crime memory crime = crimes[_index];\r\n        return (crime.criminalName, crime.location, crime.crime);\r\n    }\r\n\r\n    function getCrimesCount() public view returns (uint) {\r\n        return crimes.length;\r\n    }\r\n}\r\n",
  "sourcePath": "C:\\Users\\Raju\\OneDrive\\Desktop\\CrimeRecords\\contracts\\CrimeRecords.sol",
  "compiler": {
    "name": "solc",
    "version": "0.8.0+commit.c7dfd78e.Emscripten.clang"
  },
  "schemaVersion": "3.4.16",
  "updatedAt": "2024-05-18T23:56:05.141Z",
  "networkType": "ethereum",
  "devdoc": {
    "kind": "dev",
    "methods": {},
    "version": 1
  },
  "userdoc": {
    "kind": "user",
    "methods": {},
    "version": 1
  }
}